:020000040800F2
:1000000008090020DD0F0008FD010008FF010008BD
:1000100003020008070200080B02000800000000AD
:100020000000000000000000000000000F020008B7
:100030001102000800000000130200081502000869
:10004000F70F0008F70F0008F70F0008F70F000878
:10005000F70F0008F70F0008F70F0008F70F000868
:10006000F70F0008F70F0008F70F0008F70F000858
:10007000F70F0008F70F0008F70F0008F70F000848
:10008000F70F0008F70F0008F70F0008F70F000838
:10009000F70F0008F70F0008F70F0008F70F000828
:1000A000F70F0008F70F0008F70F0008F70F000818
:1000B000F70F0008F70F0008F70F0008F70F000808
:1000C000F70F0008F70F0008F70F0008F70F0008F8
:1000D000F70F0008A5110008E5190008F70F000840
:1000E000F70F0008F70F0008F70F000800F002F8FC
:1000F00000F05AF80AA090E8000C82448344AAF168
:100100000107DA4501D100F04FF8AFF2090EBAE865
:100110000F0013F0010F18BFFB1A43F0010318473B
:1001200078210000982100000A444FF0000C10F8DC
:10013000013B13F0070408BF10F8014B1D1108BF65
:1001400010F8015B641E05D010F8016B641E01F805
:10015000016BF9D113F0080F1EBF10F8014BAD1C55
:100160000C1B09D16D1E58BF01F801CBFAD505E073
:1001700014F8016B01F8016B6D1EF9D59142D6D3CD
:10018000704700000023002400250026103A28BFF5
:1001900078C1FBD8520728BF30C148BF0B607047F9
:1001A0001FB51FBD10B510BD01F03BFC1146FFF798
:1001B000F7FF00F009F801F059FC03B4FFF7F2FF74
:1001C00003BC00F095FF00004FF4A06000F014F9AC
:1001D00000F024FF01F02CF84FF4E13001F0B2FB05
:1001E00001F0E6F901F0BBF800200349086001E0E6
:1001F00001F05AFBFCE7000088812242704700BFF3
:10020000FEE700BFFEE700BFFEE700BFFEE7704766
:1002100070477047704700000CB5002001900090B7
:100220006C48006840F480306A49086000BF694843
:10023000006800F4003000900198401C0190009884
:1002400018B90198B0F5A06FF1D16248006800F4C8
:10025000003010B10120009001E0002000900098D3
:10026000012843D15C48006840F010005A490860FA
:100270000846006820F0030008600846006840F067
:100280000200086053484068524948600846406888
:1002900048600846406840F480604860084640680E
:1002A00020F47C1048600846406840F4E81048603C
:1002B0000846006840F08070086000BF454800684C
:1002C00000F000700028F9D04248406820F0030098
:1002D000404948600846406840F00200486000BF5E
:1002E0003C48406800F00C000828F9D10CBD10B55E
:1002F000FFF792FF10BD10B53648006840F00100CE
:10030000344908600846406834490840314948602B
:1003100008460068324908402E49086008460068CF
:1003200020F4802008600846406820F4FE00486001
:100330004FF41F008860FFF7DAFF4FF00060294993
:10034000086010BD10B5002100200022214B5B6821
:1003500003F00C0121B1042906D0082928D107E0B7
:10036000214B224C236027E01F4B204C236023E0CD
:10037000184B5B6803F47010164B5B6803F4803213
:10038000022303EB904022B9194B4343174C2360DF
:100390000DE0104B5B6803F4003323B1144B43436F
:1003A000124C236003E0104B4343104C236003E0E6
:1003B0000D4B0E4C236000BF00BF064B5B68C3F3C0
:1003C00003130C4CE15C094B1B68CB40074C2360CA
:1003D00010BD000000100240002002400000FFF8A5
:1003E000FFFFF6FE08ED00E000127A00000000209A
:1003F00000093D000400002031490143314A1160E9
:10040000704770B5002100230F22C47804B32D4C2F
:10041000246804F4E064C4F5E064210AC1F1040333
:10042000CA40447804FA03F1847814402143090156
:10043000254C0678A155047804F01F050124AC4032
:1004400005786D11AD0005F1E025C5F8004109E022
:10045000047804F01F050124AC401C4D0678761189
:1004600045F8264070BD1A4A0A400243154B1B1F2F
:100470001A60704739B1134A121D12680243114BBA
:100480001B1D1A6006E00F4A121D126882430D4BB5
:100490001B1D1A607047042808D14FF0E02109693C
:1004A00041F004014FF0E022116107E04FF0E0213C
:1004B000096921F004014FF0E0221161704700004A
:1004C0000000FA050CED00E000E400E080E100E04F
:1004D00080FFFF1F10B50446CC48844208D101219B
:1004E000042000F02DFB0021042000F029FB46E051
:1004F000C748844208D10121082000F021FB0021D7
:10050000082000F01DFB3AE0C248844208D10121D6
:10051000102000F015FB0021102000F011FB2EE050
:10052000BD48844208D10121202000F009FB0021B0
:10053000202000F005FB22E0B848844208D10121C8
:10054000402000F0FDFA0021402000F0F9FA16E00A
:10055000B348844208D10121802000F0F1FA002143
:10056000802000F0EDFA0AE0AE48844207D1012174
:10057000801500F0E5FA0021A01500F0E1FA10BDA9
:1005800010B50121084600F0DBFA0021012000F03F
:10059000D7FA10BD2DE9F0410246002500260020C3
:1005A00000230024002791F803C00CF00F0591F8F8
:1005B00003C00CF0100CBCF1000F03D091F802C086
:1005C0004CEA050591F800C0BCF1000F31D0146869
:1005D00000202BE04FF0010C0CFA00F3B1F800C042
:1005E0000CEA03069E4220D183004FF00F0C0CFA58
:1005F00003F7BC4305FA03FC4CEA040491F803C07A
:10060000BCF1280F06D14FF0010C0CFA00FCC2F827
:1006100014C00AE091F803C0BCF1480F05D14FF0B7
:10062000010C0CFA00FCC2F810C0401C0828D1D301
:100630001460B1F800C0BCF1FF0F34DD5468002035
:100640002EE000F1080C4FF0010808FA0CF3B1F8A5
:1006500000C00CEA03069E4221D183004FF00F0C2C
:100660000CFA03F7BC4305FA03FC4CEA040491F8C6
:1006700003C0BCF1280F05D100F1080C08FA0CF8F2
:10068000C2F8148091F803C0BCF1480F07D100F103
:10069000080C4FF0010808FA0CF8C2F81080401C52
:1006A0000828CED35460BDE8F0814FF6FF71018079
:1006B000022181700421C1707047024600209368B6
:1006C0000B400BB1012000E0002070470146886814
:1006D00080B2704702460020D3680B400BB1012066
:1006E00000E0002070470146C86880B27047016191
:1006F0007047416170470AB1016100E04161704794
:10070000C16070474FF480320A4382618161826127
:1007100082698269704702460020434B18684FF691
:100720008073184040EA021008433F4B186070473E
:100730003E49C8617047F0B50A46002300240021F5
:10074000002500F00046B6F1004F02D1364EF169A7
:1007500001E0354E7168C0F3034583B200F44016E2
:10076000B6F5401F08D121F070612F4E766826F053
:1007700070662D4F7E6012E000F48016B6F5801F83
:1007800006D1032606FA05F4A14341F0706106E0A4
:10079000460D360103FA06F6B14341F0706122B10D
:1007A000460D360103FA06F6314300F00046B6F175
:1007B000004F02D11C4EF16101E01B4E7160F0BD93
:1007C00030B500228B071C0F0F2303FA04F2164BDF
:1007D00008338C1053F824309343134C08348D1095
:1007E00044F8253023468C1053F824308C07240F0E
:1007F00000FA04F423430C4C08348D1044F82530DF
:1008000030BD0A49DC310860704700000008014033
:10081000000C01400010014000140140001801408C
:10082000001C014000200140000001400000204267
:10083000DF48006840F00100DD4908600846406874
:10084000DC490840DA49486008460068DA4908404F
:10085000D74908600846006820F4802008600846F0
:10086000406820F4FE0048604FF41F008860704725
:10087000CF49096821F48031CD4A116011460968D9
:1008800021F480211160B0F5803F03D0B0F5802FB6
:100890000ED106E0C649096841F48031C44A1160AE
:1008A00007E0C349096841F4A021C14A116000E092
:1008B00000BF00BF704710B5014600220023002092
:1008C0004A11012A02D1BA4C236806E0022A02D159
:1008D000B74C236A01E0B64C636A01F01F020124A1
:1008E00094401C400CB1012000E0002010BD38B540
:1008F000002000900024002500BF3120FFF7DBFF1F
:1009000005460098401C00900098B0F5A06F01D0FB
:10091000002DF2D03120FFF7CEFF08B1012400E016
:100920000024204638BD01460020A14A106820F06E
:10093000F80040EAC10010607047A04908607047A5
:10094000024600209A4B586820F47C1042EA0103CA
:100950001843974B5860704798490866704701469E
:100960000020934A506820F003000843506070470D
:100970008F48406800F00C007047014600208C4A08
:10098000506820F0F0000843506070470146002096
:10099000874A506820F4E060084350607047014681
:1009A0000020834A506820F4605040EAC100506043
:1009B000704729B17E4A527A02437D4B5A7204E055
:1009C0007B4A527A82437A4B5A7270477B49D831BC
:1009D0000860704701460020754A506820F4404086
:1009E0000843506070470021714A20321170704AEC
:1009F00082F82010012802D004280AD104E0012145
:100A00006B4A2032117005E00521694A20321170CD
:100A100000E000BF00BF7047694908607047644943
:100A2000096A0143624A11627047654944390860A6
:100A3000704730B500210022002400235C4D6D6812
:100A400005F00C0121B1042905D0082923D105E0C6
:100A50005C4D056022E05B4D05601FE0544D6D6804
:100A600005F47012524D6D6805F48034022505EBD3
:100A700092421CB9544D554305600BE04C4D6D68D6
:100A800005F400351DB1504D5543056002E04D4D54
:100A90005543056002E04B4D056000BF00BF444D6B
:100AA0006D6805F0F0010909484D6B5C0568DD4093
:100AB00045603F4D6D6805F4E061090A434D6B5C8C
:100AC0004568DD4085603A4D6D6805F46051C90A9E
:100AD0003E4D6B5C4568DD40C560354D6D6805F485
:100AE0004041890B3A4D6B5CC568B5FBF3F5056178
:100AF00030BD29B12E4A526902432D4B5A6104E0A0
:100B00002B4A526982432A4B5A61704729B1284ABD
:100B100092690243264B9A6104E0254A9269824316
:100B2000234B9A61704729B1214AD2690243204B75
:100B3000DA6104E01E4AD26982431D4BDA617047D4
:100B400029B11B4AD2680243194BDA6004E0184A03
:100B5000D2688243164BDA60704729B1144A126991
:100B60000243134B1A6104E0114A12698243104B8D
:100B70001A61704712494039086070470F49C864CC
:100B800070470B49C87170470948406A40F080704F
:100B900007494862704701460020054A92680A40AA
:100BA0000AB1012000E000207047014988727047B7
:100BB000001002400000FFF8FFFFF6FE0000424276
:100BC0008004424200127A0000093D001400002017
:100BD0002400002010B50446FB48844209D10121BD
:100BE0008803FFF7ADFF00214FF48040FFF7A8FF17
:100BF00032E0F648844209D101214804FFF7ADFFF5
:100C000000214FF40030FFF7A8FF25E0F0488442B0
:100C100009D101218804FFF7A0FF00214FF48020B3
:100C2000FFF79BFF18E0EB48844209D10121C8047B
:100C3000FFF793FF00214FF40020FFF78EFF0BE03A
:100C4000E548844208D101210805FFF786FF00210D
:100C50004FF48010FFF781FF10BD2DE9F04786B0FB
:100C600005460E460024A24600BFA1460027B089D3
:100C700000B100BF2F462C8A4CF6FF700440F0886C
:100C800004432C82AC894EF6F3100440B0883189BD
:100C90000843718908430443AC81AC8A4FF6FF4096
:100CA0000440B0890443AC8201A8FFF7C2FEC648E5
:100CB000874202D1DDF810A001E0DDF80CA0A88980
:100CC00000F4004040B10AEBCA0000EB0A103168A2
:100CD0004900B0FBF1F807E00AEBCA0000EB0A108C
:100CE00031688900B0FBF1F86420B8FBF0F0040132
:100CF0002009642101FB1089A88900F4004040B15B
:100D0000322000EBC900B0FBF1F000F00700044313
:100D100008E0322000EB09106421B0FBF1F000F094
:100D20000F0004432C8106B0BDE8F0874FF4165144
:100D3000016000218180C18001810C21418100215D
:100D40008181704710B502460020108A4FF2FF03E0
:100D500018400B884C8823438C882343CC8823433A
:100D60001843108210BD0021018041808180C18024
:100D7000704721B1828942F40052828104E0828965
:100D80004DF6FF731A4082817047F0B50346002488
:100D900000260025002040F66A17B94200D100BFA6
:100DA0001846C1F3421401F01F06012707FA06F5A1
:100DB000012C01D10C3004E0022C01D1103000E0F4
:100DC00014301AB107682F43076002E00768AF4389
:100DD0000760F0BD1AB1838A0B43838202E0838AE5
:100DE0008B4383827047028A4FF6F0731A40028267
:100DF000028A0A430282704782894FF2FF731A40C7
:100E0000828182890A438281704721B1828942F0BE
:100E10000202828104E082894FF6FD731A408281CA
:100E20007047028A4FF6DF731A400282028A0A4331
:100E30000282704721B1028A42F48042028204E0B9
:100E4000028A4BF6FF731A4002827047C1F3080210
:100E50008280704701468888C0F308007047818906
:100E600041F0010181817047028BD2B20283028B73
:100E700042EA012202837047028B02F47F4202831E
:100E8000028B0A430283704721B1828A42F020021A
:100E9000828204E0828A4FF6DF731A4082827047B2
:100EA00021B1828A42F01002828204E0828A4FF6E7
:100EB000EF731A408282704721B1828A42F00802A1
:100EC000828204E0828A4FF6F7731A40828270476A
:100ED00021B1828942F40042828103E08289C2F317
:100EE0000E028281704721B1828A42F400628282BE
:100EF00004E0828A4FF2FF731A4082827047828A2E
:100F00004FF6FB731A408282828A0A4382827047BC
:100F100021B1828A42F00202828204E0828A4FF684
:100F2000FD731A408282704702460020B1F5007FAF
:100F300000D100BF13880B400BB1012000E000205E
:100F4000704701F40072B2F5007F00D100BFCA43C0
:100F50000280704770B5024600240023002500205F
:100F600040F66A16B14200D100BFC1F3421501F04C
:100F70001F03012606FA03F3012D02D1968933409F
:100F800006E0022D02D1168A334001E0968A3340F2
:100F90000C12012606FA04F41688344013B10CB181
:100FA000012000E0002070BD10B50022002340F6B3
:100FB0006A14A14200D100BF0A1201249440A3B2D6
:100FC000DC43048010BD00000038014000440040B4
:100FD00000480040004C0040005000400948804755
:100FE00009480047FEE7FEE7FEE7FEE7FEE7FEE70B
:100FF000FEE7FEE7FEE7FEE704480549054A064B23
:1010000070470000F7020008ED0000080803002008
:1010100008090020080500200805002010B56FF021
:101020000400FFF738FA2E4800682E49B0FBF1F0B3
:101030002D4908700846007800EB4001C1EBC01054
:101040004FF6FF7101EAC0002849088010BD014633
:10105000254A12784A434FF0E0235A6100229A61F0
:101060001A46126942F001021A6100BF4FF0E022F5
:10107000106900F001021AB100F48032002AF5D0A4
:101080004FF0E022126922F001024FF0E0231A61D2
:1010900000229A6170470146144A12884A434FF071
:1010A000E0235A6100229A611A46126942F0010255
:1010B0001A6100BF4FF0E022106900F001021AB17E
:1010C00000F48032002AF5D04FF0E022126922F0BD
:1010D00001024FF0E0231A6100229A61704700007C
:1010E0000000002000127A00280000202A000020C2
:1010F00000BF704700BF4A4A128802F04002002A2F
:10110000F9D0C2B2464B1B1D1A80704710B586B08D
:101110000446012144F20400FFF7F8FC4FF400708C
:10112000ADF8140003208DF8160018208DF8170074
:1011300005A93C48FFF72EFA4FF48060ADF8140083
:1011400004208DF8170005A93648FFF723FA25205B
:101150008DF8000003208DF801008DF802000120B9
:101160008DF803006846FFF74CF901940020ADF8B4
:101170000800ADF80A00ADF80C00ADF810000C2026
:10118000ADF80E0001A92648FFF767FD012240F2E5
:1011900025512348FFF7F9FD01212148FFF7E9FD1B
:1011A00006B010BD10B540F225511D48FFF7D2FE24
:1011B00010B31B48FFF74EFEC4B21B48008800F472
:1011C0000040C8B91848008800F4804060B10A2C7B
:1011D00003D000201449088020E01348008840F420
:1011E00000401149088019E00D2C06D10E480088F6
:1011F00040F480400C49088010E00B480088C0F3A0
:101200000D000A490C5408480088401C0649088013
:1012100008460088C72801DD0020088010BD0000B6
:10122000003801400008014030000020C4010020C7
:1012300008B501212420FFF769FC4FF48070ADF858
:10124000000010208DF8030003208DF8020069468D
:101250000948FFF79FF94FF480710748FFF747FAF5
:101260000420ADF8000069460448FFF793F9042113
:101270000248FFF73CFA08BD000801400014014095
:1012800070B504460E4626B18021FE48FFF72FFABE
:1012900003E08021FB48FFF72CFA4FF48071F948F6
:1012A000FFF727FA00251BE04FF48071F648FFF79F
:1012B00020FA04F0800028B14FF40071F248FFF7E3
:1012C00016FA04E04FF40071EF48FFF712FA4FF4FA
:1012D0008071ED48FFF70BFA6006040E681CC5B27A
:1012E000082DE1DB4FF48071E648FFF700FA80211A
:1012F000E448FFF7FCF970BD70B504460D4605F1F2
:10130000B001C8B20021FFF7BBFF102141EA141061
:101310000021FFF7B5FF04F00F0141F001000021AB
:10132000FFF7AEFF70BD10B500218D20FFF7A8FFBD
:1013300000211420FFF7A4FF0021AF20FFF7A0FF3A
:1013400010BD10B500218D20FFF79AFF002110205D
:10135000FFF796FF0021AE20FFF792FF10BD70B59A
:10136000002419E004F1B001C8B20021FFF788FFA2
:1013700000210846FFF784FF00211020FFF780FFBF
:10138000002505E001210020FFF77AFF681CC5B2A7
:10139000802DF7DB601CC4B2082CE3DB70BD2DE9A7
:1013A000F04107460E46904600250024A8F1200093
:1013B000C5B27F2F02DD0027B01CC6B231463846C9
:1013C000FFF79AFF002408E004EB0511AF4A505CD8
:1013D0000121FFF755FF601CC4B2082CF4DB701C20
:1013E000C1B23846FFF788FF002409E004EB05117D
:1013F0000831A64A505C0121FFF742FF601CC4B2CD
:10140000082CF3DBBDE8F08110B50246012000E0B6
:1014100050430B00A1F10104E1B2F9D110BD2DE957
:10142000FF5F074691461D460E9E4FF0000A0024BE
:1014300033E0281B401EC1B20A20FFF7E5FFB9FBCD
:10144000F0F00A21B0FBF1F201FB1208BAF1000F33
:1014500013D1681EA04210DDB8F1000F0BD1B346C6
:1014600006EBDB71491001FB0471C8B2202201991F
:10147000FFF795FF0FE04FF0010AB34606EBDB7173
:10148000491001FB0471C8B208F13001CAB20199D8
:10149000FFF785FF00BF601CC4B2AC42C9DBBDE8EA
:1014A000FF9F2DE9F04104460F46154600260EE049
:1014B000AA5D39462046FFF772FF04F10800C4B266
:1014C000782C02DD0024B81CC7B2701CC6B2A85D1F
:1014D0000028EDD1BDE8F0812DE9F04180460E46AF
:1014E0001546002731464046FFF706FF00240AE074
:1014F000674A02EB8511085D0121FFF7C1FE781CE8
:10150000C7B2601CC4B2102CF2DB701CC1B24046E2
:10151000FFF7F2FE00240CE06900491C5C4A02EB74
:101520004111085D0121FFF7ABFE781CC7B2601CBA
:10153000C4B2102CF0DBBDE8F0812DE9F05F064667
:101540000F4690461C46DDF828A04FF0000BE1172F
:1015500004EB5171C910A4EBC10131B92046E11768
:1015600004EB5171C1F3C70506E02046E11704EB17
:101570005171C910491CCDB23D4615E0294630468F
:10158000FFF7BAFEB1460BE059460BF1010B1AF812
:1015900001000121FFF774FE09F1010000F0FF09CD
:1015A000C145F1DB681CC5B2A542E7DBBDE8F09F91
:1015B00008B501210846FFF7A9FA01213548FFF7D0
:1015C000BAF801211C20FFF7A1FA4FF4E060ADF852
:1015D000000010208DF8030003208DF802006946FA
:1015E0002948FEF7D7FF4FF4E0612748FFF77FF85F
:1015F0008020ADF8000069462248FEF7CBFF80212D
:101600002048FFF774F84FF48070ADF80000694689
:101610001C48FEF7BFFF4FF480711A48FFF767F8C8
:101620004FF480611848FFF762F86420FFF733FD3C
:101630004FF480611448FFF75CF86420FFF72BFD3E
:101640004FF480611048FFF752F80021AE20FFF7F9
:1016500017FE00210846FFF713FE00211020FFF7B8
:101660000FFE00214020FFF70BFE00218120FFF735
:1016700007FE0021CF20FFF703FE0021A120FFF786
:10168000FFFD09E0000C014000100140A81C00080B
:1016900032000020000230000021C820FFF7F0FDDA
:1016A0000021A620FFF7ECFD0021A820FFF7E8FDB0
:1016B00000213F20FFF7E4FD0021D320FFF7E0FDEC
:1016C00000210846FFF7DCFD0021D520FFF7D8FDFB
:1016D00000218020FFF7D4FD0021D920FFF7D0FDA5
:1016E0000021F120FFF7CCFD0021DA20FFF7C8FD33
:1016F00000211220FFF7C4FD0021DB20FFF7C0FD11
:1017000000214020FFF7BCFD00212020FFF7B8FD9D
:1017100000210220FFF7B4FD00218D20FFF7B0FD6E
:1017200000211420FFF7ACFD0021A420FFF7A8FD45
:101730000021A620FFF7A4FD0021AF20FFF7A0FDA8
:101740000021AF20FFF79CFDFFF709FE00210846AE
:10175000FFF7D2FD08BD00004B48008900B24B499D
:1017600008804948808900B2494908804648007C81
:1017700040B248490870704700B5024646480078B4
:1017800038B9B32A05D10120434908703E480260A8
:1017900078E041480078012807D1B32A05D102201A
:1017A0003D490870384842606CE03B4800780228A8
:1017B00005D10320384908703348826062E036481A
:1017C0000078032805D10420334908702E48C260F0
:1017D00058E031480078042805D105202E490870CA
:1017E000294802614EE02C480078052805D10620E2
:1017F000294908702448426144E0274800780628B7
:1018000028D10A2A0ED100202349087023480068F5
:10181000C0432349C1F8A0011B488261FFF79CFF28
:1018200000222FE00A2A2DD000201B4908701D49F4
:1018300008600AE0002014491A4B1B6841F8230095
:1018400018480068401C17490860164800680728B7
:10185000F0DB17E000201049087000220F490860F3
:10186000104908600AE0002007490E4B1B6841F848
:1018700023000C480068401C0A49086009480068B9
:101880000728F0DB00BD00008C020020B40100201E
:10189000B6010020B8010020C0010020A0012142B3
:1018A00000002142BC01002008B519A20021084611
:1018B000FFF7F7FD0C20032300901848B0F9002033
:1018C00000214620FFF7ABFD15A202210020FFF703
:1018D000E8FD0C20032300901448B0F900200221F9
:1018E0004620FFF79CFD12A204210020FFF7D9FD3E
:1018F0000C2003230090114890F90020042144207B
:10190000FFF78DFD0EA204215A20FFF7CAFD08BD86
:101910004F70656E4D562D583A000000B4010020FE
:101920004F70656E4D562D593A000000B6010020EB
:1019300044697374616E63653A000000B801002069
:10194000636D000010B586B0044601210420FFF746
:10195000DDF801214804FFF7E6F82D48FFF73AF9D2
:101960000420ADF8140003208DF8160018208DF81F
:10197000170005A92748FEF70DFE0820ADF8140052
:1019800004208DF8170005A92248FEF703FE262043
:101990008DF8000003208DF801008DF80200012071
:1019A0008DF803006846FEF72CFD01940020ADF889
:1019B0000800ADF80A00ADF80C00ADF810000C20DE
:1019C000ADF80E0001A91248FFF747F9012240F2D5
:1019D00025510F48FFF7D9F901210D48FFF7C9F943
:1019E00006B010BD10B540F225510948FFF7B2FA14
:1019F00068B120210648FFF7A4FA0548FFF72AFA44
:101A0000C4B22046FFF7B8FEFFF7A6FE002410BDC3
:101A1000004400400008014070477047704770471D
:101A20007047754600F028F8AE46050069465346F3
:101A300020F00700854618B020B5FFF7DDFABDE8B5
:101A400020404FF000064FF000074FF000084FF025
:101A5000000B21F00701AC46ACE8C009ACE8C009B6
:101A6000ACE8C009ACE8C0098D4670470446AFF346
:101A700000802046FEF7A1FB00487047A802002026
:101A80000000000000000000002F00000000070020
:101A9000070000147F147F1400242A7F2A1200629A
:101AA0006408132300364955225000000503000046
:101AB00000001C224100000041221C000014083ECE
:101AC00008140008083E0808000000A06000000894
:101AD00008080808000060600000002010080402E8
:101AE000003E5149453E0000427F400000426151A6
:101AF0004946002141454B31001814127F10002740
:101B000045454539003C4A49493000017109050302
:101B100000364949493600064949291E0000363633
:101B20000000000056360000000814224100001496
:101B30001414141400004122140800020151090673
:101B400000324959513E007C1211127C007F4949F4
:101B50004936003E41414122007F4141221C007F25
:101B600049494941007F09090901003E4149497A33
:101B7000007F0808087F0000417F410000204041AD
:101B80003F01007F08142241007F40404040007F19
:101B9000020C027F007F0408107F003E4141413E5D
:101BA000007F09090906003E4151215E007F0919A5
:101BB00029460046494949310001017F0101003FA2
:101BC0004040403F001F2040201F003F4038403F22
:101BD0000063140814630007087008070061514986
:101BE000454300007F41410000552A552A55000019
:101BF00041417F0000040201020400404040404097
:101C0000000001020400002054545478007F48442E
:101C1000443800384444442000384444487F003865
:101C20005454541800087E0901020018A4A4A47C8E
:101C3000007F080404780000447D40000040808458
:101C40007D00007F102844000000417F4000007CA0
:101C500004180478007C08040478003844444438AC
:101C600000FC242424180018242418FC007C0804F8
:101C7000040800485454542000043F444020003CD1
:101C80004040207C001C2040201C003C4030403C58
:101C9000004428102844001CA0A0A07C00446454E8
:101CA0004C4414141414141400000000000000002C
:101CB0000000000000000000000000F8000000002C
:101CC000000000333000000000100C06100C06006D
:101CD000000000000000000040C07840C0784000D4
:101CE000043F04043F040400007088FC0830000036
:101CF000001820FF211E0000F008F000E01800008E
:101D000000211C031E211E0000F008887000000046
:101D10001E2123241927211010160E000000000098
:101D20000000000000000000000000E018040200B5
:101D3000000000071820400000020418E000000026
:101D40000040201807000000404080F08040400024
:101D50000202010F01020200000000F0000000007A
:101D60000101011F0101010000000000000000004E
:101D700080B07000000000000000000000000000C3
:101D8000000101010101010100000000000000004C
:101D900000303000000000000000000080601804E7
:101DA000006018060100000000E010080810E000C4
:101DB000000F102020100F00001010F8000000008D
:101DC0000020203F202000000070080808887000D4
:101DD0000030282422213000003008888848300054
:101DE0000018202020110E000000C02010F8000074
:101DF00000070424243F240000F80888880808000D
:101E00000019212020110E0000E010888818000021
:101E1000000F112020110E0000380808C8380800F3
:101E20000000003F00000000007088080888700073
:101E3000001C222121221C0000E010080810E000F4
:101E40000000312222110F00000000C0C00000007D
:101E500000000030300000000000008000000000A2
:101E6000000080600000000000008040201008009A
:101E70000001020408102000404040404040400063
:101E8000040404040404040000081020408000003E
:101E90000020100804020100007048080808F00043
:101EA0000000003036010000C030C828E810E00013
:101EB0000718272423140B000000C038E00000009E
:101EC000203C23020227382008F888888870000008
:101ED000203F202020110E00C030080808083800DC
:101EE000071820202010080008F808080810E00053
:101EF000203F202020100F0008F88888E8081000F4
:101F0000203F20202320180008F88888E8081000C7
:101F1000203F200003000000C030080808380000FF
:101F200007182020221E020008F808000008F80800
:101F3000203F210101213F20000808F80808000087
:101F40000020203F2020000000000808F8080800BA
:101F5000C08080807F00000008F888C02818080032
:101F6000203F20012638200008F80800000000006B
:101F7000203F20202020300008F8F800F8F8080062
:101F8000203F003F003F200008F830C00008F8085C
:101F9000203F200007183F00E01008080810E0006C
:101FA0000F10202020100F0008F808080808F00083
:101FB000203F210101010000E01008080810E000A6
:101FC0000F18242438504F0008F88888888870003B
:101FD000203F2000030C30200070880808083800DB
:101FE0000038202121221C00180808F808081800D1
:101FF0000000203F2000000008F808000008F80852
:10200000001F202020201F000878880000C8380802
:10201000000007380E010000F80800F80008F8007A
:10202000033C0700073C0300081868808068180814
:1020300020302C03032C30200838C800C838080092
:102040000000203F2000000010080808C8380800E1
:102050002038262120201800000000FE0202020085
:102060000000007F40404000000C30C00000000035
:10207000000000010638C00000020202FE0000005D
:10208000004040407F000000000004020202040003
:102090000000000000000000000000000000000040
:1020A0008080808080808080000202040000000028
:1020B0000000000000000000000080808080000020
:1020C0000019242222223F2008F80080800000000E
:1020D000003F112020110E000000008080800000D1
:1020E000000E112020201100000000808088F800E0
:1020F000000E112020103F20000080808080000012
:10210000001F222222221300008080F08888881875
:102110000020203F20200000000080808080800080
:10212000006B94949493600008F800808080000015
:10213000203F210000203F200080989800000000F0
:102140000020203F20200000000000809898000020
:1021500000C08080807F000008F800008080800040
:10216000203F24022D302000000808F80000000065
:102170000020203F20200000808080808080800020
:10218000203F20003F20003F8080008080800000B2
:10219000203F210000203F20000080808080000040
:1021A000001F202020201F00808000808000000071
:1021B00080FFA12020110E000000008080808000A0
:1021C000000E112020A0FF80808080008080800091
:1021D00020203F21200001000000808080808000BE
:1021E0000033242424241900008080E08080000033
:1021F0000000001F20200000808000000080800080
:10220000001F202020103F208080800000808080E0
:1022100000010E3008060100808000800080808070
:102220000F300C030C300F00008080008080800095
:102230000020312E0E3120008080800000808080C0
:1022400080818E7018060100008080808080800070
:102250000021302C2221300000000000807C02028E
:1022600000000000003F404000000000FF000000B0
:1022700000000000FF0000000002027C800000005F
:102280000040403F0000000000060101020204047B
:102290000000000000000000B8220008000000203C
:1022A000C40100002801000858230008C4010020D0
:1022B00044070000840100081184A24A046809014F
:1022C000020304060708090C6910B5020406080099
:1022D0000F124042445CC8407F40C0504E446040B2
:1022E0003680402018071B3F4001021278093E400B
:1022F000111BF888012AFF050215F81B1F08012A87
:102300007F200C109F80F05F3A8201000916E2A244
:10231000928A86828080041840807F172424A4FE3D
:10232000A3222322CC0214FF15080601FF2B01046F
:10233000010511FF0202025808101010FF1090084A
:10234000C3021108080F150444827F0180804043B6
:082350002C10284681A0D100E9
:04000005080000ED02
:00000001FF
